:100000000C9462000C948A000C948A000C948A0070
:100010000C948A000C948A000C948A000C948A0038
:100020000C948A000C948A000C948A000C948A0028
:100030000C948A000C948A000C948A000C948A0018
:100040000C94BA020C948A000C942A030C940403B6
:100050000C948A000C948A000C948A000C948A00F8
:100060000C948A000C948A000000000024002700F1
:100070002A000000000023002600290000000000E4
:10008000250028002B0004040404040404040202D4
:100090000202020203030303030301020408102007
:1000A0004080010204081020010204081020000012
:1000B0000008000201000003040700000000000027
:1000C00000005A0411241FBECFEFD8E0DEBFCDBF21
:1000D00011E0A0E0B1E0E8E2F9E002C005900D9285
:1000E000A231B107D9F721E0A2E1B1E001C01D9230
:1000F000AC3BB207E1F710E0C2E6D0E004C02197C4
:10010000FE010E948704C136D107C9F70E945C0333
:100110000C9492040C940000833081F028F4813018
:1001200099F08230A1F008958730A9F08830B9F0B5
:100130008430D1F4809180008F7D03C08091800055
:100140008F7780938000089584B58F7702C084B53F
:100150008F7D84BD08958091B0008F7703C080911A
:10016000B0008F7D8093B00008951F93CF93DF93ED
:10017000E8EBF0E09491E4EAF0E0D491E0E9F0E01B
:10018000C491CC23D1F0182F992319F0892F0E9404
:100190008C00EC2FF0E0EE0FFF1FE458FF4FA5910D
:1001A000B4919FB7F894111104C08C91D095D823C5
:1001B00002C0EC91DE2BDC939FBFDF91CF911F91AA
:1001C0000895CF93DF93282F30E0F901E255FF4FD8
:1001D0008491F901E656FF4FD491F901EA57FF4F98
:1001E000C491CC2391F081110E948C00EC2FF0E09F
:1001F000EE0FFF1FEE58FF4FA591B491EC91ED2348
:1002000081E090E021F480E002C080E090E0DF91A6
:10021000CF910895CF93DF9390E0FC01E656FF4F16
:100220002491FC01EA57FF4F8491882361F190E00B
:10023000880F991FFC01E859FF4FC591D491FC012B
:10024000E458FF4FA591B491611109C09FB7F8948C
:100250008881209582238883EC912E230BC0623005
:1002600061F49FB7F8948881322F30958323888377
:10027000EC912E2B2C939FBF06C08FB7F894E8818A
:100280002E2B28838FBFDF91CF9108953FB7F8942D
:100290008091B8019091B901A091BA01B091BB01D0
:1002A00026B5A89B05C02F3F19F00196A11DB11DD1
:1002B0003FBFBA2FA92F982F8827820F911DA11D0C
:1002C000B11DBC01CD0142E0660F771F881F991F49
:1002D0004A95D1F708958F929F92AF92BF92CF9295
:1002E000DF92EF92FF920E9446014B015C0184E68F
:1002F000C82ED12CE12CF12C0E944601DC01CB014F
:1003000088199909AA09BB09883E9340A105B1053E
:1003100098F321E0C21AD108E108F10888EE880EAE
:1003200083E0981EA11CB11CC114D104E104F104A6
:1003300019F7FF90EF90DF90CF90BF90AF909F9014
:100340008F900895CF92DF92EF92FF920F931F93B9
:10035000CF93DF936C017A018B01C0E0D0E0CE1522
:10036000DF0581F0D8016D918D01D601ED91FC91F1
:100370000190F081E02DC6010995892B11F021969D
:10038000EECF7E01C701DF91CF911F910F91FF90BA
:10039000EF90DF90CF900895089580E090E0089569
:1003A000FC01538D448D252F30E0842F90E0821B7B
:1003B000930B541710F0CF96089501970895FC0100
:1003C000918D828D981761F0828DDF01A80FB11D8C
:1003D0005D968C91928D9F5F9F73928F90E00895B0
:1003E0008FEF9FEF0895FC01918D828D981731F06A
:1003F000828DE80FF11D858D90E008958FEF9FEFBE
:100400000895FC01918D228D892F90E0805C9F4F93
:10041000821B91098F739927089582E191E00E94D0
:10042000010221E0892B09F420E0822F0895FC01CC
:10043000848DDF01A80FB11DA35ABF4F2C91848D6D
:1004400090E001968F739927848FA689B7892C93A2
:10045000A089B1898C91837080648C93938D848DF5
:10046000981306C00288F389E02D80818F7D8083F8
:100470000895EF92FF920F931F93CF93DF93EC01B8
:1004800081E0888F9B8D8C8D981305C0E889F98950
:10049000808185FD26C0F62E0B8D10E00F5F1F4F6B
:1004A0000F731127E02E8C8DE8120CC00FB607FCDD
:1004B000FACFE889F989808185FFF5CFCE010E94C6
:1004C0001702F1CF8B8DFE01E80FF11DE35AFF4FAC
:1004D000F0829FB7F8940B8FEA89FB898081806254
:1004E0000AC09FB7F894EE89FF896083E889F9898B
:1004F00080818370806480839FBF81E090E0DF9182
:10050000CF911F910F91FF90EF900895CF93DF93BC
:10051000EC01888D8823C9F0EA89FB89808185FDFB
:1005200005C0A889B9898C9186FD0FC00FB607FC5C
:10053000F5CF808185FFF2CFA889B9898C9185FF9D
:10054000EDCFCE010E941702E7CFDF91CF91089542
:1005500080E090E0892B29F00E940D0281110C941B
:100560000000089580E00C94B50081E00C94B50083
:100570000E948D041F920F920FB60F9211242F9399
:100580003F938F939F93AF93BF938091B4019091CA
:10059000B501A091B601B091B7013091B30123E04C
:1005A000230F2D3720F40196A11DB11D05C026E8AB
:1005B000230F0296A11DB11D2093B3018093B401B6
:1005C0009093B501A093B601B093B7018091B801A3
:1005D0009091B901A091BA01B091BB010196A11D02
:1005E000B11D8093B8019093B901A093BA01B09363
:1005F000BB01BF91AF919F918F913F912F910F9030
:100600000FBE0F901F9018951F920F920FB60F926A
:1006100011242F933F934F935F936F937F938F9307
:100620009F93AF93BF93EF93FF9382E191E00E947A
:100630001702FF91EF91BF91AF919F918F917F91A1
:100640006F915F914F913F912F910F900FBE0F903F
:100650001F9018951F920F920FB60F9211242F938F
:100660008F939F93EF93FF93E0912201F0912301E9
:100670008081E0912801F091290182FD12C09081D2
:1006800080912B018F5F8F7320912C01821751F085
:10069000E0912B01F0E0EE5EFE4F958F80932B01F1
:1006A00001C08081FF91EF919F918F912F910F90C9
:1006B0000FBE0F901F901895789484B5826084BD0A
:1006C00084B5816084BD85B5826085BD85B5816056
:1006D00085BD80916E00816080936E0010928100D4
:1006E000809181008260809381008091810081608F
:1006F0008093810080918000816080938000809150
:10070000B10084608093B1008091B00081608093DB
:10071000B00080917A00846080937A0080917A00A2
:10072000826080937A0080917A00816080937A0061
:1007300080917A00806880937A001092C10061E015
:100740008AE00E940A0160E089E00E940A0160E0FC
:1007500088E00E940A010E94B202E0912201F09119
:10076000230182E08083E0911E01F0911F0110823D
:10077000E0912001F09121018FEC808310922A01F9
:10078000E0912601F091270186E08083E091240129
:10079000F0912501808180618083E0912401F091B6
:1007A0002501808188608083E0912401F0912501FA
:1007B000808180688083E0912401F091250180810F
:1007C0008F7D80831092B2011092B101C2E0D0E01F
:1007D0001092B0011092AF0189E00E94E1008C01FB
:1007E000019769F40E946B0189E00E94E100892B66
:1007F00031F41093B0010093AF010E946B0188E0C7
:100800000E94E100019769F40E946B0188E00E9458
:10081000E100892B31F4D093B001C093AF010E9465
:100820006B018091B1019091B2018130910599F0F5
:1008300018F0029719F13BC08091AF019091B0017F
:100840008230910591F18130910589F59093B20143
:100850008093B10110C08091AF019091B0018230BE
:10086000910539F49093B2018093B1010E94B502D1
:100870001EC00197E1F40E94B20219C08091AF013D
:100880009091B0018130910531F49093B201809341
:10089000B1010E94B2028091AF019091B001029724
:1008A00031F41092B2011092B1010E94B2020E9482
:1008B000A8028ECFE2E1F1E01382128288EE93E08B
:1008C000A0E0B0E084839583A683B78384E091E0C1
:1008D0009183808385EC90E09587848784EC90E019
:1008E0009787868780EC90E0918B808B81EC90E0FD
:1008F000938B828B82EC90E0958B848B86EC90E0DE
:10090000978B868B118E128E138E148E0895EE0F98
:10091000FF1F0590F491E02D099481E090E0F89498
:080920000C949204F894FFCF3F
:10092800000000003902A201D00186020102DF01A5
:02093800F301C9
:107E0000112484B714BE81FFF0D085E080938100F7
:107E100082E08093C00088E18093C10086E0809377
:107E2000C20080E18093C4008EE0C9D0259A86E02C
:107E300020E33CEF91E0309385002093840096BBD3
:107E4000B09BFECF1D9AA8958150A9F7CC24DD24C4
:107E500088248394B5E0AB2EA1E19A2EF3E0BF2EE7
:107E6000A2D0813461F49FD0082FAFD0023811F036
:107E7000013811F484E001C083E08DD089C08234E0
:107E800011F484E103C0853419F485E0A6D080C0E4
:107E9000853579F488D0E82EFF2485D0082F10E0AE
:107EA000102F00270E291F29000F111F8ED06801E7
:107EB0006FC0863521F484E090D080E0DECF843638
:107EC00009F040C070D06FD0082F6DD080E0C81688
:107ED00080E7D80618F4F601B7BEE895C0E0D1E017
:107EE00062D089930C17E1F7F0E0CF16F0E7DF06D8
:107EF00018F0F601B7BEE89568D007B600FCFDCFD4
:107F0000A601A0E0B1E02C9130E011968C91119780
:107F100090E0982F8827822B932B1296FA010C0160
:107F200087BEE89511244E5F5F4FF1E0A038BF0790
:107F300051F7F601A7BEE89507B600FCFDCF97BE46
:107F4000E89526C08437B1F42ED02DD0F82E2BD052
:107F50003CD0F601EF2C8F010F5F1F4F84911BD097
:107F6000EA94F801C1F70894C11CD11CFA94CF0C13
:107F7000D11C0EC0853739F428D08EE10CD085E9AC
:107F80000AD08FE07ACF813511F488E018D01DD067
:107F900080E101D065CF982F8091C00085FFFCCF94
:107FA0009093C60008958091C00087FFFCCF809118
:107FB000C00084FD01C0A8958091C6000895E0E648
:107FC000F0E098E1908380830895EDDF803219F02E
:107FD00088E0F5DFFFCF84E1DECF1F93182FE3DFCA
:107FE0001150E9F7F2DF1F91089580E0E8DFEE27F6
:047FF000FF270994CA
:027FFE00040479
:0400000300007E007B
:00000001FF
